:0F09D90001100001170001080002130000C18384
:100AC300120A957D017F01120A60120C7012098AC5
:100AD300120C81120865AF09120026120736E508C9
:0D0AE300C3941440EBE4F50812093580E3DC
:03000B00020630BA
:10063000C0E0C0F0C083C082C0D075D000C000C090
:1006400001C002C003C004C005C006C007758C3CD1
:10065000758AB005100508E509B4060205173003D0
:1006600004B2B28002D2B2E510C394145003020760
:1006700006751000C2AAAE0AAF0B7C007D3C1205C5
:10068000BB8E138F14750A00750B00D2AAAF0D7EB6
:1006900000AC13AD141205BBAC06AD07E41204D6D2
:1006A0007B1E7A3879FF784012032BE4FBFA79C875
:1006B0007842120434E4FBFA79707842120434125E
:1006C000050F8E118F12AC11AD12E41204D67466B0
:1006D000FBFAF9784012043412050F8F0CE512254D
:1006E00016F516E5113515F515C3E51694E8E5156B
:1006F00094034008751500751600050EE50EC394A9
:10070000634003750E00E51775F01E84E5F0700B6D
:10071000E509B40606751700750900D007D006D0A4
:1007200005D004D003D002D001D000D0D0D082D0E8
:0607300083D0F0D0E0329E
:03001300020016D2
:0D001600C0E0050BE50B7002050AD0E032DA
:0D0C8100E50CD3950F4003D20322C20322DD
:100B3C002092063092FD7F02222093063093FD7F97
:100B4C0003222091063091FD7F01222094053094E0
:040B5C00FD7F0422F3
:100A6000ED6005438780800353877FEF24FE600895
:100A700004700D7598508008759890D2AFD2AC2252
:100A800053890F438920758DCC758BCCC2ABD2AF07
:050A9000D28ED2AC2261
:080003008F993099FDC299228A
:100B17008B478A488949AB47AA48A949120590607B
:100B2700130549E5497002054814F9120590FF12AB
:050B3700000380E22232
:03002300020A1EB0
:100A1E00C0E0C0F0C083C082C0D075D000C000C09E
:100A2E0001C002C003C004C005C006C0073098074D
:100A3E00AF99120BBDC298D007D006D005D004D006
:100A4E0003D002D001D000D0D0D082D083D0F0D04D
:020A5E00E03284
:100C7000758C3C758AB0D2A9D28CD2AAD28AD2AF56
:010C80002251
:0B0C9A00EF1FAC0670011E4C70F6222C
:040BA0007C00E4FFF2
:100BA400AB05C2A5EF24FF92A78B80C2A6D2A57F76
:090BB400017E00120C9AC2A52278
:100AF0008B448A458946AB44AA45A94612059060B5
:100B000015FD7C007F01120BA474012546F546E417
:070B10003545F54580E022A8
:100A95007D01120BA07FDC7E05120C9A7D38120BAE
:100AA500A07FDC7E05120C9A7D0C120BA07D061230
:0E0AB5000BA07DD0120BA07FDC7E05020C9AF8
:1009E800202023000000000000000000000000009C
:1009F80000000000000000000000000000000000EF
:090A0800000000012200012100A0
:100BBD00E52204541F65216010AE22052274232EF8
:0C0BCD00F8A60753221F7F01227F0022A0
:100C1100E52265216012AF21052174232FF8E61228
:0B0C210005A953211F7F01227F002244
:1008E0006D2F7320006B6D2000633A0074696D6595
:1008F0003A20003A006B6D2F682000722F6D696EF0
:1009000020004469616D657465723A00416C6172E2
:100910006D2073706565643A006B6D2F68007265B9
:10092000736572766174696F6E0053756363657386
:050930007366756C0008
:100026008F43E54370627D80FCFF120BA4AE11AFD7
:10003600127C007D641205CD7C007D0A1205CDED93
:100046002430FDE43CFC7F01120BA4AE11AF127C00
:10005600007D0A1205CD7C007D0A1205CDED243007
:10006600FDE43CFC7F01120BA4AE11AF127C007DB7
:100076000A1205CDED2430FDE43CFC7F01120BA4F1
:100086007BFF7A0879E08040E54364016003020162
:10009600D97D80FCFF120BA4E50C75F00A8475F07F
:1000A6000A84E5F02430FDE433FC7F01120BA4E55D
:1000B6000C75F00A84E5F02430FDE433FC7F011270
:1000C6000BA47BFF7A0879F5120AF0E50E75F00AA3
:1000D6008475F00A84E5F02430FDE433FC7F0112D8
:1000E6000BA4E50E75F00A84E5F02430FDE433FC3C
:1000F6007F01120BA47BFF7A0879E5120AF07BFFD9
:100106007A0879E9120AF0E51E75F00A8475F00A94
:1001160084E5F02430FDE433FC7F01120BA4E51ED8
:1001260075F00A84E5F02430FDE433FC7F01120B00
:10013600A47DC07C00E4FF120BA47BFF7A0879EC57
:10014600120AF0E51C75F00A8475F00A84E5F024BD
:1001560030FDE433FC7F01120BA4E51C75F00A8424
:10016600E5F02430FDE433FC7F01120BA47BFF7A1B
:100176000879F3120AF0E51D75F00A8475F00A8411
:10018600E5F02430FDE433FC7F01120BA4E51D7578
:10019600F00A84E5F02430FDE433FC7F01120BA461
:1001A6007BFF7A0879F3120AF0E51B75F00A84756D
:1001B600F00A84E5F02430FDE433FC7F01120BA441
:1001C600E51B75F00A84E5F02430FDE433FC7F017D
:1001D6000202FAE543640260030202637D80FCFFCB
:1001E600120BA4AE13AF147C037DE81205CD7C0080
:1001F6007D0A1205CDED2430FDE43CFC7F01120B97
:10020600A4AE13AF147C007D641205CD7C007D0A7C
:100216001205CDED2430FDE43CFC7F01120BA4AEAB
:1002260013AF147C007D0A1205CD7C007D0A1205F1
:10023600CDED2430FDE43CFC7F01120BA4AE13AFE0
:10024600147C007D0A1205CDED2430FDE43CFC7FD4
:1002560001120BA47BFF7A0879FB020327E54364AE
:100266000370427D80FCFF120BA47BFF7A097902A2
:10027600120AF0E50D75F00A8475F00A84E5F0249B
:1002860030FDE433FC7F01120BA4E50D75F00A8402
:10029600E5F02430FDE433FC7F01120BA47DC07C25
:1002A60000E4FF804FE5436404704C7D80FCFF1240
:1002B6000BA47BFF7A09790C120AF0E50F75F00A98
:1002C6008475F00A84E5F02430FDE433FC7F0112E6
:1002D6000BA4E50F75F00A84E5F02430FDE433FC49
:1002E6007F01120BA47BFF7A097919120AF07DC0EF
:1002F6007C00E4FF020BA4E543B405117D807C007D
:10030600E4FF120BA47BFF7A09791E8014E543B43F
:1003160006127D807C00E4FF120BA47BFF7A09792C
:050326002A120AF0227A
:090A1100011C0D011D00011B0078
:1007360020002F20012C200229AB18AA19A91A1271
:100746000C11EF601DAB18AA19A91A120590249E68
:10075600600A14600A24027079D20022D20122D2E1
:10076600022230001AAB18AA19A91A120C11EF604E
:1007760061AB18AA19A91A120590F51CC2002230FD
:100786000127AB18AA19A91A120C11EF6044AB186D
:10079600AA19A91A120590FF120003AB18AA19A9E3
:1007A6001A120590F51DC20122300226AB18AA19AD
:1007B600A91A120C11EF601AAB18AA19A91A120578
:1007C60090FF120003AB18AA19A91A120590F51B7F
:0207D600C2025D
:0107D80022FE
:030A1A00011E00BA
:060CB900000000DFFB2239
:100C4600D2B77F01120CB9C2B77F78120CB9D2B7EE
:050C56007F64020CB9EF
:100B6000E4FD7E08C2B700EDC313FDD2B77F0112CA
:100B70000CB930B7034305807F0A120CB9DEE5AF2C
:010B8000056F
:010B81002251
:020B8200AE07BC
:100B84007D08C2B700EE1392B77F0B120CB9D2B72F
:0B0B9400EEC313FE7F01120CB9DDE779
:010B9F002233
:10093500120C467FCC120B827F44120B82120C469E
:100945007FCC120B827FBE120B82120B60AC07129A
:100955000B60AD07EDFEECFBEBFFEDD39480400D96
:10096500EFF4FFEEF4FEEF2401FFE43EFEAD07AC2D
:1009750006E41204D6E4FBFA7980783D12032B12C3
:04098500050F8F1EAD
:01098900224B
:0C0C8E00C2AF53E71843E70143E78022A0
:090CB00053E77FE4F5E6D2AF2220
:0B0CA500120C8E75E64675E6B90022C1
:100BD900AD07AC06C2AF8CE3EDF5E453E5F843E5A8
:0C0BE90001120CA5120CB0D2AFAFE2223A
:100C5B00EE54FEFEF5E3E4F5E453E5F843E5031249
:050C6B000CA5020CB015
:100BF500AB07AA06C2AF8AE3EBF5E453E5F843E594
:0C0C0500028DE2120CA5120CB0D2AF223E
:10086500120B3CEF24FE604314601814605A2403F5
:100875007068E509D394004061E5099406505B155D
:1008850009804EE50924FC60111460182402704AA1
:10089500E50DC394635043050D22E50FC3946350E2
:1008A50039050F22120C2C75090622E50924FC6076
:1008B5000D047026E50DD39400401F150D22E50F9C
:1008C500D394004015150F22E509C39405500B0577
:0B08D500097D017C00E4FF120BA4224F
:100C2C007F007E20120C5BAD0F7E20120BF5AD0DFC
:0A0C3C000F120BF5AD0E0F020BF5C1
:10098A007F007E20120BD98F0FE50FD39463500797
:10099A00E50FC394005003E4F50F7F017E20120B8C
:1009AA00D98F0DE50DD394635007E50DC39400501C
:1009BA0003E4F50D7F027E20120BD98F0EE50ED3CC
:0F09CA0094635007E50EC394005003750E63222B
:10032B00EC4D6011E8497017ED33EC3304600DE4CC
:10033B00FCFFFEFD22E933E8330470F802057B1263
:10034B00054658046009E4CC248150062850090264
:10035B000585284003020582C0E0EB4A7044B98052
:10036B0006D0E0FB020571EF4E701CBD8008EBFF61
:10037B00EAFEE9FD80EBE98DF0A4FEE5F002041442
:10038B00E9CDF9EAFEEBFFEF89F0A4FCE5F0CE89AD
:10039B00F0A42EFFE435F0CD89F0A42DFEE435F06A
:1003AB008067EF4E7005BD80D780C3EF8BF0A4AC98
:1003BB00F0EE8BF0A42CFCE435F0F8EF8AF0A42CD3
:1003CB00E5F038FCE433CB8DF0A42CFCE5F03BF8E6
:1003DB00EE8AF0A42CFCE5F038F8E433CF89F0A4D6
:1003EB002CFCE5F038CF3400CE89F0A42FFFE5F0DC
:1003FB003EFEE433C98DF0A42EFEE5F039CD8AF034
:10040B00A42FFFE5F03EFEE43DFD33D0E0FB5007AB
:10041B000BBB000F020585EC2CFCEF33FFEE33FE1C
:06042B00ED33FD02055D4A
:10043100020585EC5D046005E85904700302057B43
:10044100120546580460F6EC4860F2EC7004FDFEBB
:10045100FF22C860DB2481C85009C398600250069E
:100461000205829850CAF582E9294B4A7005AB8290
:1004710002057175F0007C1A7880C3EF9BEE9AED4E
:1004810099400DC3EF9BFFEE9AFEED99FDE842F016
:10049100DC23ACF0D0E0FFD0E0FED0E0FDAB822069
:1004A100E7101BEB60BAEC2CFCEF33FFEE33FEEDF3
:1004B10033FD02055DE803F830E705C0F075F00093
:1004C100EF2FFFEE33FEED33FD40B830E7C280AAD7
:1004D10075F020800E75F010800575F0087D007EA6
:1004E100007F003392D530D503120622EC33401041
:1004F100EF33FFEE33FEED33FDEC33FCD5F0ED22AF
:0E050100E5F0247EA2D513CC92E7CDCEFF22EA
:10050F00EDD2E7CD33EC3392D524814006E4FFFEE4
:10051F00FDFC22FCE4CFCECDCC24E0501174FF8043
:10052F00EDC3CC13CCCD13CDCE13CECF13CF0470E0
:07053F00F030D5DE020622B8
:10054600E9D2E7C933E833F892D5EDD2E7CD33ECFB
:0705560033FC5002B2D52274
:10055D00EC30E7100FBF000C0EBE00080DBD0004FF
:10056D000BEB6014A2D5EB13FCED92E7FD2274FFAB
:10057D00FCFDFEFF22E480F8A2D574FF13FC7D8004
:03058D00E480EF18
:030000000207D91B
:0C07D900787FE4F6D8FD75814902082005
:10059000BB010689828A83E0225002E722BBFE0269
:0905A000E32289828A83E493229C
:1005A900BB010689828A83F0225002F722BBFE0131
:0205B900F3222B
:1005BB00EF8DF0A4A8F0CF8CF0A428CE8DF0A42E54
:0205CB00FE220E
:1005CD00BC000BBE0029EF8DF084FFADF022E4CC12
:1005DD00F875F008EF2FFFEE33FEEC33FCEE9DECDB
:1005ED00984005FCEE9DFE0FD5F0E9E4CEFD22ED21
:1005FD00F8F5F0EE8420D21CFEADF075F008EF2F6B
:10060D00FFED33FD4007985006D5F0F222C398FD5B
:05061D000FD5F0EA22F8
:0E062200C3E49FFFE49EFEE49DFDE49CFC22E9
:1007E500020AC3E493A3F8E493A34003F68001F25D
:1007F50008DFF48029E493A3F85407240CC8C33315
:10080500C4540F4420C8834004F456800146F6DFE3
:10081500E4800B01020408102040809009D9E47E91
:10082500019360BCA3FF543F30E509541FFEE493D8
:10083500A360010ECF54C025E060A840B8E493A39F
:10084500FAE493A3F8E493A3C8C582C8CAC583CACA
:10085500F0A3C8C582C8CAC583CADFE9DEE780BE82
:010A1D0000D8
:00000001FF
