:0F0AAB0001100001170001080002130000C183B1
:100A7E00120A507D017F01120A1B120C2D12098AD7
:100A8E00120C6E120865AF09120026120736E50821
:0D0A9E00C3941440EBE4F50812093580E321
:03000B00020630BA
:10063000C0E0C0F0C083C082C0D075D000C000C090
:1006400001C002C003C004C005C006C007758C3CD1
:10065000758AB005100508E509B4060205173003D0
:1006600004B2B28002D2B2E510C394145003020760
:1006700006751000C2AAAE0AAF0B7C007D3C1205C5
:10068000BB8E138F14750A00750B00D2AAAF0D7EB6
:1006900000AC13AD141205BBAC06AD07E41204D6D2
:1006A0007B1E7A3879FF784012032BE4FBFA79C875
:1006B0007842120434E4FBFA79707842120434125E
:1006C000050F8E118F12AC11AD12E41204D67466B0
:1006D000FBFAF9784012032B12050F8F0CE5122557
:1006E00016F516E5113515F515C3E51694E8E5156B
:1006F00094034008751500751600050EE50EC394A9
:10070000634003750E00E51775F01E84E5F0700B6D
:10071000E509B40606751700750900D007D006D0A4
:1007200005D004D003D002D001D000D0D0D082D0E8
:0607300083D0F0D0E0329E
:03001300020016D2
:0D001600C0E0050BE50B7002050AD0E032DA
:0D0C6E00E50CD3950F4003D20322C20322F0
:100B23002092063092FD7F02222093063093FD7FB0
:100B330003222091063091FD7F01222094053094F9
:040B4300FD7F04220C
:100A1B00ED6005438780800353877FEF24FE6008DA
:100A2B0004700D7598508008759890D2AFD2AC2297
:100A3B0053890F438920758DCC758BCCC2ABD2AF4C
:050A4B00D28ED2AC22A6
:080003008F993099FDC299228A
:100AFE008B2F8A308931AB2FAA30A9311205906025
:100B0E00130531E5317002053014F9120590FF120C
:050B1E00000380E2224B
:030023000209D9F6
:1009D900C0E0C0F0C083C082C0D075D000C000C0E4
:1009E90001C002C003C004C005C006C00730980793
:1009F900AF99120BA4C298D007D006D005D004D065
:100A090003D002D001D000D0D0D082D083D0F0D092
:020A1900E032C9
:100C2D005389F0438901758C3C758AB0D2A9D28C59
:070C3D00D2AAD28AD2AF2235
:0B0C8700EF1FAC0670011E4C70F6223F
:040B87007C00E4FF0B
:100B8B00AB05C2A5EF24FF92A78B80C2A6D2A57F8F
:090B9B00017E00120C87C2A522A4
:100AD7008B2C8A2D892EAB2CAA2DA92E120590605E
:100AE70015FD7C007F01120B8B7401252EF52EE47A
:070AF700352DF52D80E022F2
:100A50007D01120B877FDC7E05120C877D38120B1F
:100A6000877FDC7E05120C877D0C120B877D0612BA
:0E0A70000B877DD0120B877FDC7E05020C8782
:100ABA0008230000000000000000012200012100BC
:100BA400E52204540765216010AE22052274232E29
:0C0BB400F8A6075322077F01227F0022D1
:100BF800E52265216012AF21052174232FF8E61242
:0B0C080005A95321077F01227F002275
:1008E0006D2F7320006B6D2000633A0074696D6595
:1008F0003A20003A006B6D2F682000722F6D696EF0
:1009000020004469616D657465723A00416C6172E2
:100910006D2073706565643A006B6D2F68007265B9
:10092000736572766174696F6E0053756363657386
:050930007366756C0008
:100026008F2BE52B70627D80FCFF120B8BAE11AF20
:10003600127C007D641205CD7C007D0A1205CDED93
:100046002430FDE43CFC7F01120B8BAE11AF127C19
:10005600007D0A1205CD7C007D0A1205CDED243007
:10006600FDE43CFC7F01120B8BAE11AF127C007DD0
:100076000A1205CDED2430FDE43CFC7F01120B8B0A
:100086007BFF7A0879E08040E52B6401600302017A
:10009600D97D80FCFF120B8BE50C75F00A8475F098
:1000A6000A84E5F02430FDE433FC7F01120B8BE576
:1000B6000C75F00A84E5F02430FDE433FC7F011270
:1000C6000B8B7BFF7A0879F5120AD7E50E75F00AD5
:1000D6008475F00A84E5F02430FDE433FC7F0112D8
:1000E6000B8BE50E75F00A84E5F02430FDE433FC55
:1000F6007F01120B8B7BFF7A0879E5120AD77BFF0B
:100106007A0879E9120AD7E51E75F00A8475F00AAD
:1001160084E5F02430FDE433FC7F01120B8BE51EF1
:1001260075F00A84E5F02430FDE433FC7F01120B00
:100136008B7DC07C00E4FF120B8B7BFF7A0879EC89
:10014600120AD7E51C75F00A8475F00A84E5F024D6
:1001560030FDE433FC7F01120B8BE51C75F00A843D
:10016600E5F02430FDE433FC7F01120B8B7BFF7A34
:100176000879F3120AD7E51D75F00A8475F00A842A
:10018600E5F02430FDE433FC7F01120B8BE51D7591
:10019600F00A84E5F02430FDE433FC7F01120B8B7A
:1001A6007BFF7A0879F3120AD7E51B75F00A847586
:1001B600F00A84E5F02430FDE433FC7F01120B8B5A
:1001C600E51B75F00A84E5F02430FDE433FC7F017D
:1001D6000202FAE52B640260030202637D80FCFFE3
:1001E600120B8BAE13AF147C037DE81205CD7C0099
:1001F6007D0A1205CDED2430FDE43CFC7F01120B97
:100206008BAE13AF147C007D641205CD7C007D0A95
:100216001205CDED2430FDE43CFC7F01120B8BAEC4
:1002260013AF147C007D0A1205CD7C007D0A1205F1
:10023600CDED2430FDE43CFC7F01120B8BAE13AFF9
:10024600147C007D0A1205CDED2430FDE43CFC7FD4
:1002560001120B8B7BFF7A0879FB020327E52B64DF
:100266000370427D80FCFF120B8B7BFF7A097902BB
:10027600120AD7E50D75F00A8475F00A84E5F024B4
:1002860030FDE433FC7F01120B8BE50D75F00A841B
:10029600E5F02430FDE433FC7F01120B8B7DC07C3E
:1002A60000E4FF804FE52B6404704C7D80FCFF1258
:1002B6000B8B7BFF7A09790C120AD7E50F75F00ACA
:1002C6008475F00A84E5F02430FDE433FC7F0112E6
:1002D6000B8BE50F75F00A84E5F02430FDE433FC62
:1002E6007F01120B8B7BFF7A097919120AD77DC021
:1002F6007C00E4FF020B8BE52BB405117D807C00AE
:10030600E4FF120B8B7BFF7A09791E8014E52BB470
:1003160006127D807C00E4FF120B8B7BFF7A097945
:050326002A120AD72293
:090ACA00011C0D011D00011B00BF
:1007360020002F20012C200229AB18AA19A91A1271
:100746000BF8EF601DAB18AA19A91A120590249E82
:10075600600A14600A24027079D20022D20122D2E1
:10076600022230001AAB18AA19A91A120BF8EF6068
:1007760061AB18AA19A91A120590F51CC2002230FD
:100786000127AB18AA19A91A120BF8EF6044AB1887
:10079600AA19A91A120590FF120003AB18AA19A9E3
:1007A6001A120590F51DC20122300226AB18AA19AD
:1007B600A91A120BF8EF601AAB18AA19A91A120592
:1007C60090FF120003AB18AA19A91A120590F51B7F
:0207D600C2025D
:0107D80022FE
:030AD300011E0001
:060CA600000000DFFB224C
:100C4400D2B77F01120CA6C2B77F78120CA6D2B716
:050C54007F64020CA604
:100B4700E4FD7E08C2B700EDC313FDD2B77F0112E3
:100B57000CA630B7034305807F0A120CA6DEE5AF6B
:010B67000588
:010B6800226A
:020B6900AE07D5
:100B6B007D08C2B700EE1392B77F0B120CA6D2B75B
:0B0B7B00EEC313FE7F01120CA6DDE7A5
:010B8600224C
:10093500120C447FCC120B697F44120B69120C44D4
:100945007FCC120B697FBE120B69120B47AC0712E5
:100955000B47AD07EDFEECFBEBFFEDD39480400DAF
:10096500EFF4FFEEF4FEEF2401FFE43EFEAD07AC2D
:1009750006E41204D6E4FBFA7980783D12032B12C3
:04098500050F8F1EAD
:01098900224B
:0C0C7B00C2AF53E71843E70143E78022B3
:090C9D0053E77FE4F5E6D2AF2233
:0B0C9200120C7B75E64675E6B90022E7
:100BC000AD07AC06C2AF8CE3EDF5E453E5F843E5C1
:0C0BD00001120C92120C9DD2AFAFE22279
:100C5900EE54FEFEF5E3E4F5E453E5F843E503124B
:050C69000C92020C9D3D
:100BDC00AB07AA06C2AF8AE3EBF5E453E5F843E5AD
:0C0BEC00028DE2120C92120C9DD2AF227E
:10086500120B23EF24FE604314601814605A24030E
:100875007068E509D394004061E5099406505B155D
:1008850009804EE50924FC60111460182402704AA1
:10089500E50DC394635043050D22E50FC3946350E2
:1008A50039050F22120C1375090622E50924FC608F
:1008B5000D047026E50DD39400401F150D22E50F9C
:1008C500D394004015150F22E509C39405500B0577
:0B08D500097D017C00E4FF120B8B2268
:100C13007F007E20120C59AD0F7E20120BDCAD0D30
:0A0C23000F120BDCAD0E0F020BDC0C
:10098A007F007E20120BC08F0FE50FD394635007B0
:10099A00E50FC394005003E4F50F7F017E20120B8C
:1009AA00C08F0DE50DD394635007E50DC394005035
:1009BA0003E4F50D7F027E20120BC08F0EE50ED3E5
:0F09CA0094635007E50EC394005003750E63222B
:10032B00EC4D6011E8497017ED33EC3304600DE4CC
:10033B00FCFFFEFD22E933E8330470F802057B1263
:10034B00054658046009E4CC248150062850090264
:10035B000585284003020582C0E0EB4A7044B98052
:10036B0006D0E0FB020571EF4E701CBD8008EBFF61
:10037B00EAFEE9FD80EBE98DF0A4FEE5F002041442
:10038B00E9CDF9EAFEEBFFEF89F0A4FCE5F0CE89AD
:10039B00F0A42EFFE435F0CD89F0A42DFEE435F06A
:1003AB008067EF4E7005BD80D780C3EF8BF0A4AC98
:1003BB00F0EE8BF0A42CFCE435F0F8EF8AF0A42CD3
:1003CB00E5F038FCE433CB8DF0A42CFCE5F03BF8E6
:1003DB00EE8AF0A42CFCE5F038F8E433CF89F0A4D6
:1003EB002CFCE5F038CF3400CE89F0A42FFFE5F0DC
:1003FB003EFEE433C98DF0A42EFEE5F039CD8AF034
:10040B00A42FFFE5F03EFEE43DFD33D0E0FB5007AB
:10041B000BBB000F020585EC2CFCEF33FFEE33FE1C
:06042B00ED33FD02055D4A
:10043100020585EC5D046005E85904700302057B43
:10044100120546580460F6EC4860F2EC7004FDFEBB
:10045100FF22C860DB2481C85009C398600250069E
:100461000205829850CAF582E9294B4A7005AB8290
:1004710002057175F0007C1A7880C3EF9BEE9AED4E
:1004810099400DC3EF9BFFEE9AFEED99FDE842F016
:10049100DC23ACF0D0E0FFD0E0FED0E0FDAB822069
:1004A100E7101BEB60BAEC2CFCEF33FFEE33FEEDF3
:1004B10033FD02055DE803F830E705C0F075F00093
:1004C100EF2FFFEE33FEED33FD40B830E7C280AAD7
:1004D10075F020800E75F010800575F0087D007EA6
:1004E100007F003392D530D503120622EC33401041
:1004F100EF33FFEE33FEED33FDEC33FCD5F0ED22AF
:0E050100E5F0247EA2D513CC92E7CDCEFF22EA
:10050F00EDD2E7CD33EC3392D524814006E4FFFEE4
:10051F00FDFC22FCE4CFCECDCC24E0501174FF8043
:10052F00EDC3CC13CCCD13CDCE13CECF13CF0470E0
:07053F00F030D5DE020622B8
:10054600E9D2E7C933E833F892D5EDD2E7CD33ECFB
:0705560033FC5002B2D52274
:10055D00EC30E7100FBF000C0EBE00080DBD0004FF
:10056D000BEB6014A2D5EB13FCED92E7FD2274FFAB
:10057D00FCFDFEFF22E480F8A2D574FF13FC7D8004
:03058D00E480EF18
:030000000207D91B
:0C07D900787FE4F6D8FD7581310208201D
:10059000BB010689828A83E0225002E722BBFE0269
:0905A000E32289828A83E493229C
:1005A900BB010689828A83F0225002F722BBFE0131
:0205B900F3222B
:1005BB00EF8DF0A4A8F0CF8CF0A428CE8DF0A42E54
:0205CB00FE220E
:1005CD00BC000BBE0029EF8DF084FFADF022E4CC12
:1005DD00F875F008EF2FFFEE33FEEC33FCEE9DECDB
:1005ED00984005FCEE9DFE0FD5F0E9E4CEFD22ED21
:1005FD00F8F5F0EE8420D21CFEADF075F008EF2F6B
:10060D00FFED33FD4007985006D5F0F222C398FD5B
:05061D000FD5F0EA22F8
:0E062200C3E49FFFE49EFEE49DFDE49CFC22E9
:1007E500020A7EE493A3F8E493A34003F68001F2A2
:1007F50008DFF48029E493A3F85407240CC8C33315
:10080500C4540F4420C8834004F456800146F6DFE3
:10081500E4800B0102040810204080900AABE47EBE
:10082500019360BCA3FF543F30E509541FFEE493D8
:10083500A360010ECF54C025E060A840B8E493A39F
:10084500FAE493A3F8E493A3C8C582C8CAC583CACA
:10085500F0A3C8C582C8CAC583CADFE9DEE780BE82
:010AD600001F
:00000001FF
